{
  "contractName": "Arbitrage",
  "abi": [
    {
      "inputs": [
        {
          "internalType": "address",
          "name": "_sRouter",
          "type": "address"
        },
        {
          "internalType": "address",
          "name": "_uRouter",
          "type": "address"
        }
      ],
      "stateMutability": "nonpayable",
      "type": "constructor"
    },
    {
      "inputs": [],
      "name": "WETH",
      "outputs": [
        {
          "internalType": "address",
          "name": "",
          "type": "address"
        }
      ],
      "stateMutability": "view",
      "type": "function",
      "constant": true
    },
    {
      "inputs": [
        {
          "internalType": "address",
          "name": "",
          "type": "address"
        }
      ],
      "name": "currencies",
      "outputs": [
        {
          "internalType": "uint256",
          "name": "",
          "type": "uint256"
        }
      ],
      "stateMutability": "view",
      "type": "function",
      "constant": true
    },
    {
      "inputs": [],
      "name": "owner",
      "outputs": [
        {
          "internalType": "address",
          "name": "",
          "type": "address"
        }
      ],
      "stateMutability": "view",
      "type": "function",
      "constant": true
    },
    {
      "inputs": [],
      "name": "sRouter",
      "outputs": [
        {
          "internalType": "contract IUniswapV2Router02",
          "name": "",
          "type": "address"
        }
      ],
      "stateMutability": "view",
      "type": "function",
      "constant": true
    },
    {
      "inputs": [
        {
          "internalType": "address",
          "name": "token",
          "type": "address"
        }
      ],
      "name": "tokenToMarketId",
      "outputs": [
        {
          "internalType": "uint256",
          "name": "",
          "type": "uint256"
        }
      ],
      "stateMutability": "view",
      "type": "function",
      "constant": true
    },
    {
      "inputs": [],
      "name": "uRouter",
      "outputs": [
        {
          "internalType": "contract IUniswapV2Router02",
          "name": "",
          "type": "address"
        }
      ],
      "stateMutability": "view",
      "type": "function",
      "constant": true
    },
    {
      "inputs": [
        {
          "internalType": "bool",
          "name": "_startOnUniswap",
          "type": "bool"
        },
        {
          "internalType": "address",
          "name": "_token0",
          "type": "address"
        },
        {
          "internalType": "address",
          "name": "_token1",
          "type": "address"
        },
        {
          "internalType": "uint256",
          "name": "_flashAmount",
          "type": "uint256"
        }
      ],
      "name": "executeTrade",
      "outputs": [],
      "stateMutability": "nonpayable",
      "type": "function"
    },
    {
      "inputs": [
        {
          "internalType": "address",
          "name": "",
          "type": "address"
        },
        {
          "components": [
            {
              "internalType": "address",
              "name": "owner",
              "type": "address"
            },
            {
              "internalType": "uint256",
              "name": "number",
              "type": "uint256"
            }
          ],
          "internalType": "struct Structs.Info",
          "name": "",
          "type": "tuple"
        },
        {
          "internalType": "bytes",
          "name": "data",
          "type": "bytes"
        }
      ],
      "name": "callFunction",
      "outputs": [],
      "stateMutability": "nonpayable",
      "type": "function"
    }
  ],
  "bytecode": "0x60c0604052731e0447b19bb6ecfdae1e4ae1694b0c3659614e4e6000806101000a81548173ffffffffffffffffffffffffffffffffffffffff021916908373ffffffffffffffffffffffffffffffffffffffff16021790555073c02aaa39b223fe8d0a0e5c4f27ead9083c756cc2600160006101000a81548173ffffffffffffffffffffffffffffffffffffffff021916908373ffffffffffffffffffffffffffffffffffffffff160217905550348015620000ba57600080fd5b506040516200265b3803806200265b8339818101604052810190620000e0919062000262565b600160026000600160009054906101000a900473ffffffffffffffffffffffffffffffffffffffff1673ffffffffffffffffffffffffffffffffffffffff1673ffffffffffffffffffffffffffffffffffffffff168152602001908152602001600020819055508173ffffffffffffffffffffffffffffffffffffffff1660808173ffffffffffffffffffffffffffffffffffffffff16815250508073ffffffffffffffffffffffffffffffffffffffff1660a08173ffffffffffffffffffffffffffffffffffffffff168152505033600360006101000a81548173ffffffffffffffffffffffffffffffffffffffff021916908373ffffffffffffffffffffffffffffffffffffffff1602179055505050620002a9565b600080fd5b600073ffffffffffffffffffffffffffffffffffffffff82169050919050565b60006200022a82620001fd565b9050919050565b6200023c816200021d565b81146200024857600080fd5b50565b6000815190506200025c8162000231565b92915050565b600080604083850312156200027c576200027b620001f8565b5b60006200028c858286016200024b565b92505060206200029f858286016200024b565b9150509250929050565b60805160a051612370620002eb6000396000818161028f01528181610f62015261103201526000818161019f01528181611134015261120401526123706000f3fe608060405234801561001057600080fd5b50600436106100885760003560e01c80638b4187131161005b5780638b418713146101155780638da5cb5b14610131578063ad5c46481461014f578063b82687881461016d57610088565b8063017c64b01461008d5780631395dd23146100ab5780635cf39049146100c75780636036cba3146100e5575b600080fd5b61009561019d565b6040516100a2919061143b565b60405180910390f35b6100c560048036038101906100c09190611516565b6101c1565b005b6100cf61028d565b6040516100dc919061143b565b60405180910390f35b6100ff60048036038101906100fa919061157d565b6102b1565b60405161010c91906115b9565b60405180910390f35b61012f600480360381019061012a919061165d565b6102c9565b005b610139610938565b60405161014691906116e0565b60405180910390f35b61015761095e565b60405161016491906116e0565b60405180910390f35b6101876004803603810190610182919061157d565b610984565b60405161019491906115b9565b60405180910390f35b7f000000000000000000000000000000000000000000000000000000000000000081565b60008373ffffffffffffffffffffffffffffffffffffffff166370a08231306040518263ffffffff1660e01b81526004016101fc91906116e0565b60206040518083038186803b15801561021457600080fd5b505afa158015610228573d6000803e3d6000fd5b505050506040513d601f19601f8201168201806040525081019061024c9190611710565b90506000858585858560405160200161026995949392919061174c565b6040516020818303038152906040529050610285858483610a22565b505050505050565b7f000000000000000000000000000000000000000000000000000000000000000081565b60026020528060005260406000206000915090505481565b60008054906101000a900473ffffffffffffffffffffffffffffffffffffffff1673ffffffffffffffffffffffffffffffffffffffff163373ffffffffffffffffffffffffffffffffffffffff1614610357576040517f08c379a000000000000000000000000000000000000000000000000000000000815260040161034e90611822565b60405180910390fd5b6000806000806000868681019061036e9190611880565b9450945094509450945060008473ffffffffffffffffffffffffffffffffffffffff166370a08231306040518263ffffffff1660e01b81526004016103b391906116e0565b60206040518083038186803b1580156103cb57600080fd5b505afa1580156103df573d6000803e3d6000fd5b505050506040513d601f19601f820116820180604052508101906104039190611710565b9050828282610412919061192a565b14610452576040517f08c379a0000000000000000000000000000000000000000000000000000000008152600401610449906119aa565b60405180910390fd5b6000600267ffffffffffffffff81111561046f5761046e6119ca565b5b60405190808252806020026020018201604052801561049d5781602001602082028036833780820191505090505b50905085816000815181106104b5576104b46119f9565b5b602002602001019073ffffffffffffffffffffffffffffffffffffffff16908173ffffffffffffffffffffffffffffffffffffffff16815250508481600181518110610504576105036119f9565b5b602002602001019073ffffffffffffffffffffffffffffffffffffffff16908173ffffffffffffffffffffffffffffffffffffffff168152505086156106925761055081856000610f29565b8481600081518110610565576105646119f9565b5b602002602001019073ffffffffffffffffffffffffffffffffffffffff16908173ffffffffffffffffffffffffffffffffffffffff168152505085816001815181106105b4576105b36119f9565b5b602002602001019073ffffffffffffffffffffffffffffffffffffffff16908173ffffffffffffffffffffffffffffffffffffffff168152505061068d818673ffffffffffffffffffffffffffffffffffffffff166370a08231306040518263ffffffff1660e01b815260040161062b91906116e0565b60206040518083038186803b15801561064357600080fd5b505afa158015610657573d6000803e3d6000fd5b505050506040513d601f19601f8201168201806040525081019061067b9190611710565b6001876106889190611a28565b6110fb565b6107dc565b61069e818560006110fb565b84816000815181106106b3576106b26119f9565b5b602002602001019073ffffffffffffffffffffffffffffffffffffffff16908173ffffffffffffffffffffffffffffffffffffffff16815250508581600181518110610702576107016119f9565b5b602002602001019073ffffffffffffffffffffffffffffffffffffffff16908173ffffffffffffffffffffffffffffffffffffffff16815250506107db818673ffffffffffffffffffffffffffffffffffffffff166370a08231306040518263ffffffff1660e01b815260040161077991906116e0565b60206040518083038186803b15801561079157600080fd5b505afa1580156107a5573d6000803e3d6000fd5b505050506040513d601f19601f820116820180604052508101906107c99190611710565b6001876107d69190611a28565b610f29565b5b8573ffffffffffffffffffffffffffffffffffffffff1663a9059cbb600360009054906101000a900473ffffffffffffffffffffffffffffffffffffffff166001876108289190611a28565b8973ffffffffffffffffffffffffffffffffffffffff166370a08231306040518263ffffffff1660e01b815260040161086191906116e0565b60206040518083038186803b15801561087957600080fd5b505afa15801561088d573d6000803e3d6000fd5b505050506040513d601f19601f820116820180604052508101906108b19190611710565b6108bb919061192a565b6040518363ffffffff1660e01b81526004016108d8929190611a7e565b602060405180830381600087803b1580156108f257600080fd5b505af1158015610906573d6000803e3d6000fd5b505050506040513d601f19601f8201168201806040525081019061092a9190611abc565b505050505050505050505050565b600360009054906101000a900473ffffffffffffffffffffffffffffffffffffffff1681565b600160009054906101000a900473ffffffffffffffffffffffffffffffffffffffff1681565b600080600260008473ffffffffffffffffffffffffffffffffffffffff1673ffffffffffffffffffffffffffffffffffffffff1681526020019081526020016000205490506000811415610a0d576040517f08c379a0000000000000000000000000000000000000000000000000000000008152600401610a0490611b35565b60405180910390fd5b600181610a1a919061192a565b915050919050565b8273ffffffffffffffffffffffffffffffffffffffff1663095ea7b360008054906101000a900473ffffffffffffffffffffffffffffffffffffffff16600185610a6c9190611a28565b6040518363ffffffff1660e01b8152600401610a89929190611a7e565b602060405180830381600087803b158015610aa357600080fd5b505af1158015610ab7573d6000803e3d6000fd5b505050506040513d601f19601f82011682018060405250810190610adb9190611abc565b506000600167ffffffffffffffff811115610af957610af86119ca565b5b604051908082528060200260200182016040528015610b3257816020015b610b1f6112cd565b815260200190600190039081610b175790505b5090506000600367ffffffffffffffff811115610b5257610b516119ca565b5b604051908082528060200260200182016040528015610b8b57816020015b610b786112fd565b815260200190600190039081610b705790505b50905060405180604001604052803073ffffffffffffffffffffffffffffffffffffffff168152602001600081525082600081518110610bce57610bcd6119f9565b5b602002602001018190525060006040518060800160405280600015158152602001600080811115610c0257610c01611b55565b5b8152602001600080811115610c1a57610c19611b55565b5b8152602001868152509050610c2d6112fd565b600181600001906008811115610c4657610c45611b55565b5b90816008811115610c5a57610c59611b55565b5b815250506000816020018181525050818160400181905250610c7b87610984565b816060018181525050308160a0019073ffffffffffffffffffffffffffffffffffffffff16908173ffffffffffffffffffffffffffffffffffffffff16815250508083600081518110610cd157610cd06119f9565b5b6020026020010181905250610ce46112fd565b600881600001906008811115610cfd57610cfc611b55565b5b90816008811115610d1157610d10611b55565b5b815250506000816020018181525050308160a0019073ffffffffffffffffffffffffffffffffffffffff16908173ffffffffffffffffffffffffffffffffffffffff1681525050858160e001819052508084600181518110610d7657610d756119f9565b5b6020026020010181905250610d896112fd565b60006040518060800160405280600115158152602001600080811115610db257610db1611b55565b5b8152602001600080811115610dca57610dc9611b55565b5b815260200160018b610ddc9190611a28565b8152509050600082600001906008811115610dfa57610df9611b55565b5b90816008811115610e0e57610e0d611b55565b5b815250506000826020018181525050808260400181905250610e2f8a610984565b826060018181525050308260a0019073ffffffffffffffffffffffffffffffffffffffff16908173ffffffffffffffffffffffffffffffffffffffff16815250508186600281518110610e8557610e846119f9565b5b602002602001018190525060008054906101000a900473ffffffffffffffffffffffffffffffffffffffff1673ffffffffffffffffffffffffffffffffffffffff1663a67a6a4588886040518363ffffffff1660e01b8152600401610eeb929190611fca565b600060405180830381600087803b158015610f0557600080fd5b505af1158015610f19573d6000803e3d6000fd5b5050505050505050505050505050565b82600081518110610f3d57610f3c6119f9565b5b602002602001015173ffffffffffffffffffffffffffffffffffffffff1663095ea7b37f0000000000000000000000000000000000000000000000000000000000000000846040518363ffffffff1660e01b8152600401610f9f929190611a7e565b602060405180830381600087803b158015610fb957600080fd5b505af1158015610fcd573d6000803e3d6000fd5b505050506040513d601f19601f82011682018060405250810190610ff19190611abc565b611030576040517f08c379a00000000000000000000000000000000000000000000000000000000081526004016110279061204d565b60405180910390fd5b7f000000000000000000000000000000000000000000000000000000000000000073ffffffffffffffffffffffffffffffffffffffff166338ed1739838386306104b04261107e9190611a28565b6040518663ffffffff1660e01b815260040161109e95949392919061211c565b600060405180830381600087803b1580156110b857600080fd5b505af11580156110cc573d6000803e3d6000fd5b505050506040513d6000823e3d601f19601f820116820180604052508101906110f59190612285565b50505050565b8260008151811061110f5761110e6119f9565b5b602002602001015173ffffffffffffffffffffffffffffffffffffffff1663095ea7b37f0000000000000000000000000000000000000000000000000000000000000000846040518363ffffffff1660e01b8152600401611171929190611a7e565b602060405180830381600087803b15801561118b57600080fd5b505af115801561119f573d6000803e3d6000fd5b505050506040513d601f19601f820116820180604052508101906111c39190611abc565b611202576040517f08c379a00000000000000000000000000000000000000000000000000000000081526004016111f99061231a565b60405180910390fd5b7f000000000000000000000000000000000000000000000000000000000000000073ffffffffffffffffffffffffffffffffffffffff166338ed1739838386306104b0426112509190611a28565b6040518663ffffffff1660e01b815260040161127095949392919061211c565b600060405180830381600087803b15801561128a57600080fd5b505af115801561129e573d6000803e3d6000fd5b505050506040513d6000823e3d601f19601f820116820180604052508101906112c79190612285565b50505050565b6040518060400160405280600073ffffffffffffffffffffffffffffffffffffffff168152602001600081525090565b6040518061010001604052806000600881111561131d5761131c611b55565b5b815260200160008152602001611331611370565b81526020016000815260200160008152602001600073ffffffffffffffffffffffffffffffffffffffff16815260200160008152602001606081525090565b604051806080016040528060001515815260200160008081111561139757611396611b55565b5b81526020016000808111156113af576113ae611b55565b5b8152602001600081525090565b600073ffffffffffffffffffffffffffffffffffffffff82169050919050565b6000819050919050565b60006114016113fc6113f7846113bc565b6113dc565b6113bc565b9050919050565b6000611413826113e6565b9050919050565b600061142582611408565b9050919050565b6114358161141a565b82525050565b6000602082019050611450600083018461142c565b92915050565b6000604051905090565b600080fd5b600080fd5b60008115159050919050565b61147f8161146a565b811461148a57600080fd5b50565b60008135905061149c81611476565b92915050565b60006114ad826113bc565b9050919050565b6114bd816114a2565b81146114c857600080fd5b50565b6000813590506114da816114b4565b92915050565b6000819050919050565b6114f3816114e0565b81146114fe57600080fd5b50565b600081359050611510816114ea565b92915050565b600080600080608085870312156115305761152f611460565b5b600061153e8782880161148d565b945050602061154f878288016114cb565b9350506040611560878288016114cb565b925050606061157187828801611501565b91505092959194509250565b60006020828403121561159357611592611460565b5b60006115a1848285016114cb565b91505092915050565b6115b3816114e0565b82525050565b60006020820190506115ce60008301846115aa565b92915050565b600080fd5b6000604082840312156115ef576115ee6115d4565b5b81905092915050565b600080fd5b600080fd5b600080fd5b60008083601f84011261161d5761161c6115f8565b5b8235905067ffffffffffffffff81111561163a576116396115fd565b5b60208301915083600182028301111561165657611655611602565b5b9250929050565b6000806000806080858703121561167757611676611460565b5b6000611685878288016114cb565b9450506020611696878288016115d9565b935050606085013567ffffffffffffffff8111156116b7576116b6611465565b5b6116c387828801611607565b925092505092959194509250565b6116da816114a2565b82525050565b60006020820190506116f560008301846116d1565b92915050565b60008151905061170a816114ea565b92915050565b60006020828403121561172657611725611460565b5b6000611734848285016116fb565b91505092915050565b6117468161146a565b82525050565b600060a082019050611761600083018861173d565b61176e60208301876116d1565b61177b60408301866116d1565b61178860608301856115aa565b61179560808301846115aa565b9695505050505050565b600082825260208201905092915050565b7f466c6173684c6f616e3a20636f756c642062652063616c6c656420627920447960008201527f447820706f6f6c206f6e6c790000000000000000000000000000000000000000602082015250565b600061180c602c8361179f565b9150611817826117b0565b604082019050919050565b6000602082019050818103600083015261183b816117ff565b9050919050565b600061184d826113bc565b9050919050565b61185d81611842565b811461186857600080fd5b50565b60008135905061187a81611854565b92915050565b600080600080600060a0868803121561189c5761189b611460565b5b60006118aa8882890161148d565b95505060206118bb8882890161186b565b94505060406118cc8882890161186b565b93505060606118dd88828901611501565b92505060806118ee88828901611501565b9150509295509295909350565b7f4e487b7100000000000000000000000000000000000000000000000000000000600052601160045260246000fd5b6000611935826114e0565b9150611940836114e0565b925082821015611953576119526118fb565b5b828203905092915050565b7f636f6e747261637420646964206e6f742067657420746865206c6f616e000000600082015250565b6000611994601d8361179f565b915061199f8261195e565b602082019050919050565b600060208201905081810360008301526119c381611987565b9050919050565b7f4e487b7100000000000000000000000000000000000000000000000000000000600052604160045260246000fd5b7f4e487b7100000000000000000000000000000000000000000000000000000000600052603260045260246000fd5b6000611a33826114e0565b9150611a3e836114e0565b9250827fffffffffffffffffffffffffffffffffffffffffffffffffffffffffffffffff03821115611a7357611a726118fb565b5b828201905092915050565b6000604082019050611a9360008301856116d1565b611aa060208301846115aa565b9392505050565b600081519050611ab681611476565b92915050565b600060208284031215611ad257611ad1611460565b5b6000611ae084828501611aa7565b91505092915050565b7f466c6173684c6f616e3a20556e737570706f7274656420746f6b656e00000000600082015250565b6000611b1f601c8361179f565b9150611b2a82611ae9565b602082019050919050565b60006020820190508181036000830152611b4e81611b12565b9050919050565b7f4e487b7100000000000000000000000000000000000000000000000000000000600052602160045260246000fd5b600081519050919050565b600082825260208201905092915050565b6000819050602082019050919050565b611bb9816114a2565b82525050565b611bc8816114e0565b82525050565b604082016000820151611be46000850182611bb0565b506020820151611bf76020850182611bbf565b50505050565b6000611c098383611bce565b60408301905092915050565b6000602082019050919050565b6000611c2d82611b84565b611c378185611b8f565b9350611c4283611ba0565b8060005b83811015611c73578151611c5a8882611bfd565b9750611c6583611c15565b925050600181019050611c46565b5085935050505092915050565b600081519050919050565b600082825260208201905092915050565b6000819050602082019050919050565b60098110611cbd57611cbc611b55565b5b50565b6000819050611cce82611cac565b919050565b6000611cde82611cc0565b9050919050565b611cee81611cd3565b82525050565b611cfd8161146a565b82525050565b60018110611d1457611d13611b55565b5b50565b6000819050611d2582611d03565b919050565b6000611d3582611d17565b9050919050565b611d4581611d2a565b82525050565b60018110611d5c57611d5b611b55565b5b50565b6000819050611d6d82611d4b565b919050565b6000611d7d82611d5f565b9050919050565b611d8d81611d72565b82525050565b608082016000820151611da96000850182611cf4565b506020820151611dbc6020850182611d3c565b506040820151611dcf6040850182611d84565b506060820151611de26060850182611bbf565b50505050565b600081519050919050565b600082825260208201905092915050565b60005b83811015611e22578082015181840152602081019050611e07565b83811115611e31576000848401525b50505050565b6000601f19601f8301169050919050565b6000611e5382611de8565b611e5d8185611df3565b9350611e6d818560208601611e04565b611e7681611e37565b840191505092915050565b600061016083016000830151611e9a6000860182611ce5565b506020830151611ead6020860182611bbf565b506040830151611ec06040860182611d93565b506060830151611ed360c0860182611bbf565b506080830151611ee660e0860182611bbf565b5060a0830151611efa610100860182611bb0565b5060c0830151611f0e610120860182611bbf565b5060e0830151848203610140860152611f278282611e48565b9150508091505092915050565b6000611f408383611e81565b905092915050565b6000602082019050919050565b6000611f6082611c80565b611f6a8185611c8b565b935083602082028501611f7c85611c9c565b8060005b85811015611fb85784840389528151611f998582611f34565b9450611fa483611f48565b925060208a01995050600181019050611f80565b50829750879550505050505092915050565b60006040820190508181036000830152611fe48185611c22565b90508181036020830152611ff88184611f55565b90509392505050565b7f556e697377617020617070726f76616c206661696c65642e0000000000000000600082015250565b600061203760188361179f565b915061204282612001565b602082019050919050565b600060208201905081810360008301526120668161202a565b9050919050565b600081519050919050565b600082825260208201905092915050565b6000819050602082019050919050565b60006120a58383611bb0565b60208301905092915050565b6000602082019050919050565b60006120c98261206d565b6120d38185612078565b93506120de83612089565b8060005b8381101561210f5781516120f68882612099565b9750612101836120b1565b9250506001810190506120e2565b5085935050505092915050565b600060a08201905061213160008301886115aa565b61213e60208301876115aa565b818103604083015261215081866120be565b905061215f60608301856116d1565b61216c60808301846115aa565b9695505050505050565b61217f82611e37565b810181811067ffffffffffffffff8211171561219e5761219d6119ca565b5b80604052505050565b60006121b1611456565b90506121bd8282612176565b919050565b600067ffffffffffffffff8211156121dd576121dc6119ca565b5b602082029050602081019050919050565b60006122016121fc846121c2565b6121a7565b9050808382526020820190506020840283018581111561222457612223611602565b5b835b8181101561224d578061223988826116fb565b845260208401935050602081019050612226565b5050509392505050565b600082601f83011261226c5761226b6115f8565b5b815161227c8482602086016121ee565b91505092915050565b60006020828403121561229b5761229a611460565b5b600082015167ffffffffffffffff8111156122b9576122b8611465565b5b6122c584828501612257565b91505092915050565b7f53757368697377617020617070726f76616c206661696c65642e000000000000600082015250565b6000612304601a8361179f565b915061230f826122ce565b602082019050919050565b60006020820190508181036000830152612333816122f7565b905091905056fea2646970667358221220672a255aef448b3f49d7e628672643595868a07a276f78238c69221795e50b0164736f6c63430008090033",
  "immutableReferences": {
    "853": [
      {
        "length": 32,
        "start": 415
      },
      {
        "length": 32,
        "start": 4404
      },
      {
        "length": 32,
        "start": 4612
      }
    ],
    "856": [
      {
        "length": 32,
        "start": 655
      },
      {
        "length": 32,
        "start": 3938
      },
      {
        "length": 32,
        "start": 4146
      }
    ]
  },
  "source": "// SPDX-License-Identifier: MIT\npragma solidity <=0.8.10;\n\nimport \"@uniswap/v2-periphery/contracts/interfaces/IUniswapV2Router02.sol\";\nimport \"@openzeppelin/contracts/token/ERC20/IERC20.sol\";\n\ninterface Structs {\n    struct Val {\n        uint256 value;\n    }\n\n    enum ActionType {\n        Deposit, // supply tokens\n        Withdraw, // borrow tokens\n        Transfer, // transfer balance between accounts\n        Buy, // buy an amount of some token (externally)\n        Sell, // sell an amount of some token (externally)\n        Trade, // trade tokens against another account\n        Liquidate, // liquidate an undercollateralized or expiring account\n        Vaporize, // use excess tokens to zero-out a completely negative account\n        Call // send arbitrary data to an address\n    }\n\n    enum AssetDenomination {\n        Wei // the amount is denominated in wei\n    }\n\n    enum AssetReference {\n        Delta // the amount is given as a delta from the current value\n    }\n\n    struct AssetAmount {\n        bool sign; // true if positive\n        AssetDenomination denomination;\n        AssetReference ref;\n        uint256 value;\n    }\n\n    struct ActionArgs {\n        ActionType actionType;\n        uint256 accountId;\n        AssetAmount amount;\n        uint256 primaryMarketId;\n        uint256 secondaryMarketId;\n        address otherAddress;\n        uint256 otherAccountId;\n        bytes data;\n    }\n\n    struct Info {\n        address owner; // The address that owns the account\n        uint256 number; // A nonce that allows a single address to control many accounts\n    }\n\n    struct Wei {\n        bool sign; // true if positive\n        uint256 value;\n    }\n}\n\nabstract contract DyDxPool is Structs {\n    function getAccountWei(Info memory account, uint256 marketId)\n        public\n        view\n        virtual\n        returns (Wei memory);\n\n    function operate(Info[] memory, ActionArgs[] memory) public virtual;\n}\n\ncontract DyDxFlashLoan is Structs {\n    DyDxPool pool = DyDxPool(0x1E0447b19BB6EcFdAe1e4AE1694b0C3659614e4e);\n\n    address public WETH = 0xC02aaA39b223FE8D0A0e5C4F27eAD9083C756Cc2;\n    mapping(address => uint256) public currencies;\n\n    constructor() {\n        currencies[WETH] = 1;\n    }\n\n    modifier onlyPool() {\n        require(\n            msg.sender == address(pool),\n            \"FlashLoan: could be called by DyDx pool only\"\n        );\n        _;\n    }\n\n    function tokenToMarketId(address token) public view returns (uint256) {\n        uint256 marketId = currencies[token];\n        require(marketId != 0, \"FlashLoan: Unsupported token\");\n        return marketId - 1;\n    }\n\n    // the DyDx will call `callFunction(address sender, Info memory accountInfo, bytes memory data) public` after during `operate` call\n    function flashloan(\n        address token,\n        uint256 amount,\n        bytes memory data\n    ) internal {\n        IERC20(token).approve(address(pool), amount + 1);\n        Info[] memory infos = new Info[](1);\n        ActionArgs[] memory args = new ActionArgs[](3);\n\n        infos[0] = Info(address(this), 0);\n\n        AssetAmount memory wamt = AssetAmount(\n            false,\n            AssetDenomination.Wei,\n            AssetReference.Delta,\n            amount\n        );\n        ActionArgs memory withdraw;\n        withdraw.actionType = ActionType.Withdraw;\n        withdraw.accountId = 0;\n        withdraw.amount = wamt;\n        withdraw.primaryMarketId = tokenToMarketId(token);\n        withdraw.otherAddress = address(this);\n\n        args[0] = withdraw;\n\n        ActionArgs memory call;\n        call.actionType = ActionType.Call;\n        call.accountId = 0;\n        call.otherAddress = address(this);\n        call.data = data;\n\n        args[1] = call;\n\n        ActionArgs memory deposit;\n        AssetAmount memory damt = AssetAmount(\n            true,\n            AssetDenomination.Wei,\n            AssetReference.Delta,\n            amount + 1\n        );\n        deposit.actionType = ActionType.Deposit;\n        deposit.accountId = 0;\n        deposit.amount = damt;\n        deposit.primaryMarketId = tokenToMarketId(token);\n        deposit.otherAddress = address(this);\n\n        args[2] = deposit;\n\n        pool.operate(infos, args);\n    }\n}\n\ncontract Arbitrage is DyDxFlashLoan {\n    IUniswapV2Router02 public immutable sRouter;\n    IUniswapV2Router02 public immutable uRouter;\n\n    address public owner;\n\n    constructor(address _sRouter, address _uRouter) {\n        sRouter = IUniswapV2Router02(_sRouter); // Sushiswap\n        uRouter = IUniswapV2Router02(_uRouter); // Uniswap\n        owner = msg.sender;\n    }\n\n    function executeTrade(\n        bool _startOnUniswap,\n        address _token0,\n        address _token1,\n        uint256 _flashAmount\n    ) external {\n        uint256 balanceBefore = IERC20(_token0).balanceOf(address(this));\n\n        bytes memory data = abi.encode(\n            _startOnUniswap,\n            _token0,\n            _token1,\n            _flashAmount,\n            balanceBefore\n        );\n\n        flashloan(_token0, _flashAmount, data); // execution goes to `callFunction`\n    }\n\n    function callFunction(\n        address, /* sender */\n        Info calldata, /* accountInfo */\n        bytes calldata data\n    ) external onlyPool {\n        (\n            bool startOnUniswap,\n            address token0,\n            address token1,\n            uint256 flashAmount,\n            uint256 balanceBefore\n        ) = abi.decode(data, (bool, address, address, uint256, uint256));\n\n        uint256 balanceAfter = IERC20(token0).balanceOf(address(this));\n\n        require(\n            balanceAfter - balanceBefore == flashAmount,\n            \"contract did not get the loan\"\n        );\n\n        // Use the money here!\n        address[] memory path = new address[](2);\n\n        path[0] = token0;\n        path[1] = token1;\n\n        if (startOnUniswap) {\n            _swapOnUniswap(path, flashAmount, 0);\n\n            path[0] = token1;\n            path[1] = token0;\n\n            _swapOnSushiswap(\n                path,\n                IERC20(token1).balanceOf(address(this)),\n                (flashAmount + 1)\n            );\n        } else {\n            _swapOnSushiswap(path, flashAmount, 0);\n\n            path[0] = token1;\n            path[1] = token0;\n\n            _swapOnUniswap(\n                path,\n                IERC20(token1).balanceOf(address(this)),\n                (flashAmount + 1)\n            );\n        }\n\n        IERC20(token0).transfer(\n            owner,\n            IERC20(token0).balanceOf(address(this)) - (flashAmount + 1)\n        );\n    }\n\n    // -- INTERNAL FUNCTIONS -- //\n\n    function _swapOnUniswap(\n        address[] memory _path,\n        uint256 _amountIn,\n        uint256 _amountOut\n    ) internal {\n        require(\n            IERC20(_path[0]).approve(address(uRouter), _amountIn),\n            \"Uniswap approval failed.\"\n        );\n\n        uRouter.swapExactTokensForTokens(\n            _amountIn,\n            _amountOut,\n            _path,\n            address(this),\n            (block.timestamp + 1200)\n        );\n    }\n\n    function _swapOnSushiswap(\n        address[] memory _path,\n        uint256 _amountIn,\n        uint256 _amountOut\n    ) internal {\n        require(\n            IERC20(_path[0]).approve(address(sRouter), _amountIn),\n            \"Sushiswap approval failed.\"\n        );\n\n        sRouter.swapExactTokensForTokens(\n            _amountIn,\n            _amountOut,\n            _path,\n            address(this),\n            (block.timestamp + 1200)\n        );\n    }\n}\n",
  "sourcePath": "/Users/benjaminjeschke/WebstormProjects/trading_bot-master/contracts/Arbitrage.sol",
  "compiler": {
    "name": "solc",
    "version": "0.8.9+commit.e5eed63a.Emscripten.clang"
  },
  "schemaVersion": "3.4.10",
  "updatedAt": "2022-11-18T10:35:44.658Z",
  "networkType": "ethereum",
  "devdoc": {
    "kind": "dev",
    "methods": {},
    "version": 1
  },
  "userdoc": {
    "kind": "user",
    "methods": {},
    "version": 1
  }
}