{
  "contractName": "DyDxFlashLoan",
  "abi": [
    {
      "inputs": [],
      "stateMutability": "nonpayable",
      "type": "constructor"
    },
    {
      "inputs": [],
      "name": "WETH",
      "outputs": [
        {
          "internalType": "address",
          "name": "",
          "type": "address"
        }
      ],
      "stateMutability": "view",
      "type": "function"
    },
    {
      "inputs": [
        {
          "internalType": "address",
          "name": "",
          "type": "address"
        }
      ],
      "name": "currencies",
      "outputs": [
        {
          "internalType": "uint256",
          "name": "",
          "type": "uint256"
        }
      ],
      "stateMutability": "view",
      "type": "function"
    },
    {
      "inputs": [
        {
          "internalType": "address",
          "name": "token",
          "type": "address"
        }
      ],
      "name": "tokenToMarketId",
      "outputs": [
        {
          "internalType": "uint256",
          "name": "",
          "type": "uint256"
        }
      ],
      "stateMutability": "view",
      "type": "function"
    }
  ],
  "bytecode": "0x6080604052731e0447b19bb6ecfdae1e4ae1694b0c3659614e4e6000806101000a81548173ffffffffffffffffffffffffffffffffffffffff021916908373ffffffffffffffffffffffffffffffffffffffff16021790555073c02aaa39b223fe8d0a0e5c4f27ead9083c756cc2600160006101000a81548173ffffffffffffffffffffffffffffffffffffffff021916908373ffffffffffffffffffffffffffffffffffffffff1602179055503480156100b957600080fd5b50600160026000600160009054906101000a900473ffffffffffffffffffffffffffffffffffffffff1673ffffffffffffffffffffffffffffffffffffffff1673ffffffffffffffffffffffffffffffffffffffff168152602001908152602001600020819055506103a4806101306000396000f3fe608060405234801561001057600080fd5b50600436106100415760003560e01c80636036cba314610046578063ad5c464814610076578063b826878814610094575b600080fd5b610060600480360381019061005b9190610203565b6100c4565b60405161006d9190610249565b60405180910390f35b61007e6100dc565b60405161008b9190610273565b60405180910390f35b6100ae60048036038101906100a99190610203565b610102565b6040516100bb9190610249565b60405180910390f35b60026020528060005260406000206000915090505481565b600160009054906101000a900473ffffffffffffffffffffffffffffffffffffffff1681565b600080600260008473ffffffffffffffffffffffffffffffffffffffff1673ffffffffffffffffffffffffffffffffffffffff168152602001908152602001600020549050600081141561018b576040517f08c379a0000000000000000000000000000000000000000000000000000000008152600401610182906102eb565b60405180910390fd5b600181610198919061033a565b915050919050565b600080fd5b600073ffffffffffffffffffffffffffffffffffffffff82169050919050565b60006101d0826101a5565b9050919050565b6101e0816101c5565b81146101eb57600080fd5b50565b6000813590506101fd816101d7565b92915050565b600060208284031215610219576102186101a0565b5b6000610227848285016101ee565b91505092915050565b6000819050919050565b61024381610230565b82525050565b600060208201905061025e600083018461023a565b92915050565b61026d816101c5565b82525050565b60006020820190506102886000830184610264565b92915050565b600082825260208201905092915050565b7f466c6173684c6f616e3a20556e737570706f7274656420746f6b656e00000000600082015250565b60006102d5601c8361028e565b91506102e08261029f565b602082019050919050565b60006020820190508181036000830152610304816102c8565b9050919050565b7f4e487b7100000000000000000000000000000000000000000000000000000000600052601160045260246000fd5b600061034582610230565b915061035083610230565b9250828210156103635761036261030b565b5b82820390509291505056fea26469706673582212201fe38cea6a6aa7e76fcf249d9feb9e9156dcf75442577e2b379ce2d47527c6b364736f6c63430008090033",
  "immutableReferences": {},
  "source": "// SPDX-License-Identifier: MIT\npragma solidity <=0.8.10;\n\nimport \"@uniswap/v2-periphery/contracts/interfaces/IUniswapV2Router02.sol\";\nimport \"@openzeppelin/contracts/token/ERC20/IERC20.sol\";\n\ninterface Structs {\n    struct Val {\n        uint256 value;\n    }\n\n    enum ActionType {\n        Deposit, // supply tokens\n        Withdraw, // borrow tokens\n        Transfer, // transfer balance between accounts\n        Buy, // buy an amount of some token (externally)\n        Sell, // sell an amount of some token (externally)\n        Trade, // trade tokens against another account\n        Liquidate, // liquidate an undercollateralized or expiring account\n        Vaporize, // use excess tokens to zero-out a completely negative account\n        Call // send arbitrary data to an address\n    }\n\n    enum AssetDenomination {\n        Wei // the amount is denominated in wei\n    }\n\n    enum AssetReference {\n        Delta // the amount is given as a delta from the current value\n    }\n\n    struct AssetAmount {\n        bool sign; // true if positive\n        AssetDenomination denomination;\n        AssetReference ref;\n        uint256 value;\n    }\n\n    struct ActionArgs {\n        ActionType actionType;\n        uint256 accountId;\n        AssetAmount amount;\n        uint256 primaryMarketId;\n        uint256 secondaryMarketId;\n        address otherAddress;\n        uint256 otherAccountId;\n        bytes data;\n    }\n\n    struct Info {\n        address owner; // The address that owns the account\n        uint256 number; // A nonce that allows a single address to control many accounts\n    }\n\n    struct Wei {\n        bool sign; // true if positive\n        uint256 value;\n    }\n}\n\nabstract contract DyDxPool is Structs {\n    function getAccountWei(Info memory account, uint256 marketId)\n        public\n        view\n        virtual\n        returns (Wei memory);\n\n    function operate(Info[] memory, ActionArgs[] memory) public virtual;\n}\n\ncontract DyDxFlashLoan is Structs {\n    DyDxPool pool = DyDxPool(0x1E0447b19BB6EcFdAe1e4AE1694b0C3659614e4e);\n\n    address public WETH = 0xC02aaA39b223FE8D0A0e5C4F27eAD9083C756Cc2;\n    mapping(address => uint256) public currencies;\n\n    constructor() {\n        currencies[WETH] = 1;\n    }\n\n    modifier onlyPool() {\n        require(\n            msg.sender == address(pool),\n            \"FlashLoan: could be called by DyDx pool only\"\n        );\n        _;\n    }\n\n    function tokenToMarketId(address token) public view returns (uint256) {\n        uint256 marketId = currencies[token];\n        require(marketId != 0, \"FlashLoan: Unsupported token\");\n        return marketId - 1;\n    }\n\n    // the DyDx will call `callFunction(address sender, Info memory accountInfo, bytes memory data) public` after during `operate` call\n    function flashloan(\n        address token,\n        uint256 amount,\n        bytes memory data\n    ) internal {\n        IERC20(token).approve(address(pool), amount + 1);\n        Info[] memory infos = new Info[](1);\n        ActionArgs[] memory args = new ActionArgs[](3);\n\n        infos[0] = Info(address(this), 0);\n\n        AssetAmount memory wamt = AssetAmount(\n            false,\n            AssetDenomination.Wei,\n            AssetReference.Delta,\n            amount\n        );\n        ActionArgs memory withdraw;\n        withdraw.actionType = ActionType.Withdraw;\n        withdraw.accountId = 0;\n        withdraw.amount = wamt;\n        withdraw.primaryMarketId = tokenToMarketId(token);\n        withdraw.otherAddress = address(this);\n\n        args[0] = withdraw;\n\n        ActionArgs memory call;\n        call.actionType = ActionType.Call;\n        call.accountId = 0;\n        call.otherAddress = address(this);\n        call.data = data;\n\n        args[1] = call;\n\n        ActionArgs memory deposit;\n        AssetAmount memory damt = AssetAmount(\n            true,\n            AssetDenomination.Wei,\n            AssetReference.Delta,\n            amount + 1\n        );\n        deposit.actionType = ActionType.Deposit;\n        deposit.accountId = 0;\n        deposit.amount = damt;\n        deposit.primaryMarketId = tokenToMarketId(token);\n        deposit.otherAddress = address(this);\n\n        args[2] = deposit;\n\n        pool.operate(infos, args);\n    }\n}\n\ncontract Arbitrage is DyDxFlashLoan {\n    IUniswapV2Router02 public immutable sRouter;\n    IUniswapV2Router02 public immutable uRouter;\n\n    address public owner;\n\n    constructor(address _sRouter, address _uRouter) {\n        sRouter = IUniswapV2Router02(_sRouter); // Sushiswap\n        uRouter = IUniswapV2Router02(_uRouter); // Uniswap\n        owner = msg.sender;\n    }\n\n    function executeTrade(\n        bool _startOnUniswap,\n        address _token0,\n        address _token1,\n        uint256 _flashAmount\n    ) external {\n        uint256 balanceBefore = IERC20(_token0).balanceOf(address(this));\n\n        bytes memory data = abi.encode(\n            _startOnUniswap,\n            _token0,\n            _token1,\n            _flashAmount,\n            balanceBefore\n        );\n\n        flashloan(_token0, _flashAmount, data); // execution goes to `callFunction`\n    }\n\n    function callFunction(\n        address, /* sender */\n        Info calldata, /* accountInfo */\n        bytes calldata data\n    ) external onlyPool {\n        (\n            bool startOnUniswap,\n            address token0,\n            address token1,\n            uint256 flashAmount,\n            uint256 balanceBefore\n        ) = abi.decode(data, (bool, address, address, uint256, uint256));\n\n        uint256 balanceAfter = IERC20(token0).balanceOf(address(this));\n\n        require(\n            balanceAfter - balanceBefore == flashAmount,\n            \"contract did not get the loan\"\n        );\n\n        // Use the money here!\n        address[] memory path = new address[](2);\n\n        path[0] = token0;\n        path[1] = token1;\n\n        if (startOnUniswap) {\n            _swapOnUniswap(path, flashAmount, 0);\n\n            path[0] = token1;\n            path[1] = token0;\n\n            _swapOnSushiswap(\n                path,\n                IERC20(token1).balanceOf(address(this)),\n                (flashAmount + 1)\n            );\n        } else {\n            _swapOnSushiswap(path, flashAmount, 0);\n\n            path[0] = token1;\n            path[1] = token0;\n\n            _swapOnUniswap(\n                path,\n                IERC20(token1).balanceOf(address(this)),\n                (flashAmount + 1)\n            );\n        }\n\n        IERC20(token0).transfer(\n            owner,\n            IERC20(token0).balanceOf(address(this)) - (flashAmount + 1)\n        );\n    }\n\n    // -- INTERNAL FUNCTIONS -- //\n\n    function _swapOnUniswap(\n        address[] memory _path,\n        uint256 _amountIn,\n        uint256 _amountOut\n    ) internal {\n        require(\n            IERC20(_path[0]).approve(address(uRouter), _amountIn),\n            \"Uniswap approval failed.\"\n        );\n\n        uRouter.swapExactTokensForTokens(\n            _amountIn,\n            _amountOut,\n            _path,\n            address(this),\n            (block.timestamp + 1200)\n        );\n    }\n\n    function _swapOnSushiswap(\n        address[] memory _path,\n        uint256 _amountIn,\n        uint256 _amountOut\n    ) internal {\n        require(\n            IERC20(_path[0]).approve(address(sRouter), _amountIn),\n            \"Sushiswap approval failed.\"\n        );\n\n        sRouter.swapExactTokensForTokens(\n            _amountIn,\n            _amountOut,\n            _path,\n            address(this),\n            (block.timestamp + 1200)\n        );\n    }\n}\n",
  "sourcePath": "/Users/benjaminjeschke/WebstormProjects/trading_bot-master/contracts/Arbitrage.sol",
  "compiler": {
    "name": "solc",
    "version": "0.8.9+commit.e5eed63a.Emscripten.clang"
  },
  "schemaVersion": "3.4.10",
  "updatedAt": "2022-11-18T10:35:38.664Z",
  "devdoc": {
    "kind": "dev",
    "methods": {},
    "version": 1
  },
  "userdoc": {
    "kind": "user",
    "methods": {},
    "version": 1
  }
}